:100000000C9434000C9451000C9451000C94510049
:100010000C9451000C9451000C9451000C9451001C
:100020000C9451000C9451000C9451000C947100EC
:100030000C9451000C9451000C9451000C945100FC
:100040000C9451000C9451000C9451000C945100EC
:100050000C9451000C9451000C9451000C945100DC
:100060000C9451000C94510011241FBECFEFD8E026
:10007000DEBFCDBF11E0A0E0B1E0EAEEF7E002C0E4
:1000800005900D92A432B107D9F721E0A4E2B1E0C6
:1000900001C01D92AF38B207E1F70E9495020C949F
:1000A000F3030C940000E1E8F0E080818D60808330
:1000B000109285001092840088E795E09093890063
:1000C00080938800EFE6F0E08081826080837894FE
:1000D00008952C9A2C982C9A08952B9A2B982B9A49
:1000E00008951F920F920FB60F921124CF92DF92B4
:1000F000EF92FF920F931F932F933F934F935F9332
:100100006F937F938F939F93AF93BF93EF93FF93DF
:100110000E94AC01803411F00E948C0290E080E0DB
:10012000FC01EE0FFF1FEE0FFF1FEC5DFE4F108274
:1001300011821282138201968031910589F70E9403
:100140002A0280E001E010E020E030E09091870199
:100150008917B8F0FF91EF91BF91AF919F918F9167
:100160007F916F915F914F913F912F911F910F91CF
:10017000FF90EF90DF90CF900F900FBE0F901F90E9
:100180001895A82FB0E0AA0FBB1FA759BE4F119614
:10019000EC91119794E0E902F0011124EC5DFE4F1F
:1001A000C080D180E280F3809C91B901A80104C095
:1001B000440F551F661F771F9A95D2F74C295D296A
:1001C0006E297F2940835183628373838F5FBECF03
:1001D00080916401813029F4299A82E0809364013E
:1001E00008952A9A81E0FACF1092C50080E18093A9
:1001F000C400E0ECF0E080818260808386E0809340
:10020000C20088E18093C1000895CF93C82F8A303F
:1002100019F48DE00E9405018091C00085FFFCCF9C
:10022000C093C600CF9108958091C00087FFFCCF96
:100230008091C60008951092B90088E48093B800B8
:10024000089594EA9093BC009091BC0097FFFCCF76
:100250009091B900987F983011F0903199F4809383
:10026000BB0084E88093BC008091BC0087FFFCCF7A
:100270009091B900987F983119F081E0903409F499
:1002800080E0089581E0089524EA34E844E9209369
:10029000BC009091BC0097FFFCCF9091B900987F73
:1002A000983011F0903199F78093BB003093BC00E7
:1002B0009091BC0097FFFCCF9091B900987F90324D
:1002C00011F0983539F44093BC009091BC0094FD36
:1002D000FCCFDDCF08950C94210184E98093BC000C
:1002E0008091BC0084FDFCCF08958093BB0084E81E
:1002F0008093BC008091BC0087FFFCCF9091B90037
:10030000987F81E0983209F480E0089584EC80932E
:10031000BC008091BC0087FFFCCF8091BB0008959A
:1003200084E88093BC008091BC0087FFFCCF809163
:10033000BB000895CF93C82F88E30E9444018C2FFF
:100340000E94750189E30E946B010E9490018093D5
:100350006601CF910C946D0180E10E949A01809119
:10036000660186FD05C090E0959587958370089598
:1003700080E4089580E00E949A018091660183FBE9
:10038000882780F90895CF93DF93D82FC62F88E36D
:100390000E9444018D2F0E9475018C2F0E947501CF
:1003A000DF91CF910C946D018AE20E949A016091D5
:1003B00066016E7F8AE20C94C3018AE20E949A0170
:1003C0006091660161608AE20C94C3018AE20E9436
:1003D0009A0160916601677C8AE20C94C3018EE009
:1003E0000E949A0160E08EE00C94C30160E481E118
:1003F0000E94C30160E382E10C94C3010E941B01CF
:100400000E94D4010E94EF010E94E6010E94F601C1
:100410000C94DD0140936A01609369018093870128
:1004200091E0891708F40895292F30E0D901AA0F27
:10043000BB1FA759BE4F220F331FF901E559FE4FCD
:1004400021812F5F11962C931197209169012C9394
:100450009F5FE7CFE0918701F0E0EE0FFF1FE759C4
:10046000FE4F81E0E936F80791F4809188018130F0
:1004700019F1882349F1823089F08330C9F020E0F6
:1004800030E240E180918701281730F10895DF01C3
:100490009E918E9191838083FD01E3CF80916C01C9
:1004A0008F5F80936A0180916B0180936901E7CF30
:1004B00080916C018150F5CF80916C0180936A012D
:1004C00080916B018F5FF1CF80916C0180936A0105
:1004D00080916B018150E9CF822F90E0880F991FA6
:1004E000FC01E759FE4F508150320CF01082FC01A4
:1004F000E759FE4F518150310CF01182FC01E75950
:10050000FE4F508157FD3083FC01E759FE4F81813A
:1005100087FD41832F5FB6CF809388010895809136
:1005200087018F5F80938701089580EF8AB98FE1FB
:1005300084B983E090E00E9455030E9453000E941A
:10054000F40044E064E085E00E940A020E94FE019B
:100550008EE091E090938C0180938B0180E091E09C
:1005600090938A018093890180E291E00E94600368
:10057000299A82E080936401AA24A394B12CD12CFF
:10058000D0E0C0E010E000E0CE01880F991F880F96
:10059000991F9C012C5D3E4F7901F701808191816B
:1005A000A281B381002E04C0B695A7959795879533
:1005B0000A94D2F79091640180FF1EC085B1950125
:1005C00002C0220F331F9A95E2F7209530958223BF
:1005D00085B90E9469000F5F1F4F00321105E9F6CF
:1005E000289ADBB80E946D0028982196F0E1DF0E72
:1005F000C031D10539F6C3CF85B1950101C0220FB5
:100600009A95EAF7822BE4CF8F929F92AF92BF9296
:10061000CF92DF92EF92FF92CF93DF93EC0168814C
:1006200079818A819B81611571058105910521F48C
:1006300064E279ED8BE597E02DE133EF41E050E0A6
:100640000E94900349015A019B01AC01A7EAB1E461
:100650000E94AF036B017C01ACEEB4EFA5019401E5
:100660000E94BD03DC01CB018C0D9D1DAE1DBF1D85
:10067000B7FF03C00197A109B04888839983AA8373
:10068000BB839F77DF91CF91FF90EF90DF90CF906A
:10069000BF90AF909F908F9008950E94040308959B
:1006A0008CE191E00E9404030895A0E0B0E0809303
:1006B0001C0190931D01A0931E01B0931F0108958A
:1006C0000F931F93CF93DF93E0918B01F0918C01F7
:1006D000238121FF1BC08C01D0E0C0E0F801819193
:1006E0008F0160918B0170918C01DB011896ED9167
:1006F000FC911997882331F00995892B79F3DFEF65
:10070000CFEFECCF8AE00995892B19F08FEF9FEF9F
:1007100002C08D2F9C2FDF91CF911F910F910895D3
:10072000052E97FB1EF400940E94A70357FD07D0E7
:100730000E94C20307FC03D04EF40C94A70350950B
:100740004095309521953F4F4F4F5F4F08959095BD
:100750008095709561957F4F8F4F9F4F08950E94B0
:10076000E403A59F900DB49F900DA49F800D911D53
:1007700011240895B7FF0C94AF030E94AF03821BAE
:10078000930B0895A1E21A2EAA1BBB1BFD010DC0FD
:10079000AA1FBB1FEE1FFF1FA217B307E407F50731
:1007A00020F0A21BB30BE40BF50B661F771F881F0D
:1007B000991F1A9469F760957095809590959B01A3
:1007C000AC01BD01CF010895A29FB001B39FC0014C
:1007D000A39F700D811D1124911DB29F700D811D6D
:0A07E0001124911D0895F894FFCF35
:1007EA0000000001000000000000140100000000E9
:1007FA0000020000000005010000000001000000E6
:04080A0048657900C4
:00000001FF
