:100000000C9434040C9451040C9451040C94510439
:100010000C9451040C9451040C9451040C9451040C
:100020000C9451040C9451040C9451040C947D04D0
:100030000C9451040C9451040C9451040C945104EC
:100040000C9451040C9451040C9451040C945104DC
:100050000C9451040C9451040C9451040C945104CC
:100060000C9451040C9451040000000000000000A6
:100070007E81A581BD99817E7EFFDBFFC3E7FF7E88
:10008000367F7F7F3E1C0800081C3E7F3E1C080018
:100090001C3E1C7F7F6B081C08081C3E7F3E081C12
:1000A0000000000000000000000000000000000050
:1000B0000000000000000000000000000000000040
:1000C000F0E0F0BE3333331E3C6666663C187E18A3
:1000D0000000000000000000FEC6FEC6C6E6670382
:1000E000995A3CE7E73C5A9901071F7F1F07010017
:1000F00040707C7F7C704000183C7E18187E3C1855
:100100006666666666006600FEDBDBDED8D8D80071
:100110007EC31E33331E311F000000007E7E7E0032
:10012000183C7E187E3C18FF183C7E1818181800E2
:10013000181818187E3C18000018307F301800007E
:10014000000C067F060C000000000303037F000084
:10015000002466FF6624000000183C7EFFFF0000BC
:1001600000FFFF7E3C1800000000000000000000BF
:100170000C1E1E0C0C000C00363636000000000071
:1001800036367F367F3636000C3E031E301F0C009D
:10019000006333180C6663001C361C6E3B336E0024
:1001A0000606030000000000180C0606060C1800E6
:1001B000060C1818180C060000663CFF3C66000090
:1001C000000C0C3F0C0C000000000000000E0C06A0
:1001D0000000003F0000000000000000000C0C00C8
:1001E0006030180C060301001E333B3F37331E00FE
:1001F0000C0F0C0C0C0C3F001E33301C06333F0060
:100200001E33301C30331E00383C36337F30300014
:100210003F031F3030331E001C06031F33331E0004
:100220003F3330180C0606001E33331E33331E00D6
:100230001E33333E30180E0000000C0C000C0C0076
:1002400000000C0C000E0C06180C0603060C18001F
:1002500000003F003F000000060C1830180C06009C
:100260001E3330180C000C003E637B7B7B031E00AA
:100270000C1E33333F3333003F66663E66663F00F5
:100280003C66030303663C003F36666666363F0005
:100290007F46161E16467F007F46161E16060F0066
:1002A0003C66030373667C003333333F33333300E0
:1002B0001E0C0C0C0C0C1E007830303033331E003A
:1002C0006766361E366667000F06060646667F00BE
:1002D00063777F6B6363630063676F7B7363630044
:1002E0001C36636363361C003F66663E06060F00DD
:1002F0001E3333333B1E38003F66663E1E366700B2
:100300001E33071C38331E003F2D0C0C0C0C1E0036
:100310003333333333333F0033333333331E0C0043
:100320006363636B7F7763006363361C36636300CC
:100330003333331E0C0C1E007F33190C46637F00D1
:100340001E06060606061E0003060C183060400056
:100350001E18181818181E00081C3663000000002C
:1003600000000000000000FF0C0C1800000000005E
:1003700000001E303E336E0007063E6666663D0096
:1003800000001E3303331E003830303E33336E001E
:1003900000001E333F031E001C36060F06060F002A
:1003A00000006E33333E301F0706366E6666670008
:1003B0000C000E0C0C0C1E0018001E1818181B0E3A
:1003C000070666361E3667000E0C0C0C0C0C1E0061
:1003D0000000377F6B63630000001F33333333004B
:1003E00000001E3333331E0000003B66663E060FDE
:1003F00000006E33333E307800001B3636060F00A7
:1004000000003E031E301F00080C3E0C0C2C180090
:100410000000333333336E0000003333331E0C00DF
:10042000000063636B7F3600000063361C36630098
:1004300000003333333E301F00003F190C263F00CD
:10044000380C0C070C0C3800181818001818180075
:10045000070C0C380C0C07006E3B0000000000007D
:10046000081C366363637F001E330303331E0C06D0
:100470000033003333337E00180C1E333F031E005D
:100480007EC33C607C66FC0033001E303E337E0041
:10049000060C1E303E337E003C663C607C66FC00F1
:1004A000001E3303331E0C067EC33C667E063C00F2
:1004B00033001E333F031E00060C1E333F031E0095
:1004C00033000E0C0C0C1E003E631C1818183C0068
:1004D000060C0E0C0C0C1E00330C1E33333F330085
:1004E0000C120C1E333F3300180C3F061E063F0053
:1004F0000000FE30FE33FE007C36337F3333730062
:100500001E33001E33331E000033001E33331E0023
:10051000060C001E33331E001E33003333337E00BF
:10052000060C003333337E0000330033333F301F7B
:1005300063003E6363633E003300333333331E0096
:1005400000003E736B673E001C36260F06673F00B7
:100550005C36736B67361D000000331E0C1E3300C3
:1005600070D8187E18181B0E180C1E303E337E00F3
:10057000180C0E0C0C0C1E003018001E33331E001D
:100580003018003333337E006E3B001F33333300AB
:100590006E3B00373F3B33003C36367C007E00002C
:1005A0003C66663C007E00000C000C0603331E0017
:1005B0003C5AA59D95663C000000003F303000008D
:1005C00067361E7EC67319F867361ECEE6B3F9C0CD
:1005D00000180018183C3C1800CC663366CC0000AC
:1005E000003366CC663300004411441144114411B9
:1005F000AA55AA55AA55AA55BBEEBBEEBBEEBBEE5B
:100600001818181818181818181818181F18181863
:1006100030180C1E333F33001E210C1E333F3300B5
:1006200003060C1E333F33003C429D859D423C0037
:100630006C6C6F606F6C6C6C6C6C6C6C6C6C6C6C00
:1006400000007F606F6C6C6C6C6C6F607F000000F2
:1006500018187E03037E181833331E3F0C3F0C0C12
:10066000000000001F18181818181818F8000000CB
:1006700018181818FF00000000000000FF181818D4
:1006800018181818F818181800000000FF000000CB
:1006900018181818FF1818186E3B1E303E337E00CD
:1006A0006E3B0C1E333F33006C6CEC0CFC00000006
:1006B0000000FC0CEC6C6C6C6C6CEF00FF0000003C
:1006C0000000FF00EF6C6C6C6C6CEC0CEC6C6C6CF8
:1006D0000000FF00FF0000006C6CEF00EF6C6C6C22
:1006E00000417F36367F41001B0E1B303C361C001C
:1006F0003F36666F66363F001E213F061E063F00EE
:1007000033003F061E063F00060C3F061E063F0054
:100710000003020700000000180C1E0C0C0C1E0049
:100720001E211E0C0C0C1E0033001E0C0C0C1E0097
:10073000181818181F00000000000000F8181818FA
:10074000FFFFFFFFFFFFFFFF00000000FFFFFFFFB5
:100750001818180018181800060C1E0C0C0C1E0097
:10076000FFFFFFFF00000000180C3E6363633E00C4
:10077000001E331F331F03033E413E6363633E008D
:100780000C183E6363633E006E3B001E33331E0055
:100790006E3B3E6363633E0000666666663E06032C
:1007A00000071E361E060F000F063E663E060F00AF
:1007B000180C333333331E001E21003333331E0035
:1007C000060C333333331E00180C0033333F301F15
:1007D000180C33331E0C1E00003F00000000000008
:1007E000180C000000000000000000003F000000A6
:1007F0000C0C3F0C0C003F000000003F003F0000CD
:1008000067341ECCE7B3F9C0FEDBDBDED8D8D800F6
:100810007EC31E33331E311F0C0C003F000C0C0036
:100820000000000000000C061C36361C0000000012
:10083000003300000000000000000000180000006D
:100840001C1E18187E0000003E703C703E00000028
:100850001E301C063E00000000003C3C3C3C0000FA
:10086000000000000000000011241FBECFEFD8E000
:10087000DEBFCDBF11E0A0E0B1E0ECEBF3E102C0E0
:1008800005900D92A632B107D9F721E0A6E2B1E0BA
:1008900001C01D92A839B207E1F70E9425080C9407
:1008A000DC090C940000E1E8F0E080818D60808339
:1008B000109285001092840088E795E0909389005B
:1008C00080938800EFE6F0E08081826080837894F6
:1008D00008952C9A2C982C9A08952B9A2B982B9A41
:1008E000089580916A01813029F4299A82E08093E9
:1008F0006A0108952A9A81E0FACF1F920F920FB6EB
:100900000F9211244F925F926F927F928F929F92DB
:10091000AF92BF92CF92DF92EF92FF920F931F930D
:100920002F933F934F935F936F937F938F939F93F7
:10093000AF93BF93CF93DF93EF93FF930E943D0755
:1009400090912701882309F499C1992309F46CC077
:10095000109227010E942F07803411F00E940D0889
:1009600090E080E0FC01EE0FFF1FEE0FFF1FE65D41
:10097000FE4F1082118212821382019680319105FE
:1009800089F70E94CE072091700130E0F901EE0F47
:10099000FF1FEE0FFF1FE65DFE4FC080D180E2809B
:1009A000F38060916F01462F50E081E090E0A0E07D
:1009B000B0E004C0880F991FAA1FBB1F6A95D2F729
:1009C0008C299D29AE29BF2980839183A283B3837B
:1009D00080E0812C912C540183949091900189178F
:1009E00008F44FC180917101082E000C990B481733
:1009F000590779F480917201082E000C990B281781
:100A0000390739F40E941008809190018F5F80931C
:100A100090019091260180E020919001821708F4C6
:100A200057C19093260156C081E08093270190E042
:100A300080E0FC01EE0FFF1FEE0FFF1FE65DFE4F93
:100A4000108211821282138201968031910589F7FA
:100A500024E030E0F901EC5BFB4F9491E901CC0F0D
:100A6000DD1FCC0FDD1FC65DDE4F488159816A81D5
:100A70007B81892F90E0B0E0A0E01AE0880F991FF9
:100A8000AA1FBB1F1A95D1F7842B952BA62BB72B2A
:100A900088839983AA83BB83E491488159816A81C1
:100AA0007B818E2F90E0B0E0A0E00EE0880F991FD0
:100AB000AA1FBB1F0A95D1F7842B952BA62BB72B0A
:100AC00088839983AA83BB832F5F3F4F2C303105E6
:100AD00009F0C0CF80912601882309F491C0C0910C
:100AE000900180910001C89FE0011124D093290159
:100AF000C093280180E090E00E944B098C179D076D
:100B000028F4BE0180E090E00E94510990E080E06E
:100B1000FC01EE0FFF1FEE0FFF1FE65DFE4F108280
:100B200011821282138201968031910589F7E0913A
:100B30002801F0912901CF0164E670E00E94970836
:100B40009B01205D3F4F43E0220F331F4A95E1F7A1
:100B5000CF016AE070E00E949708605D7F4F53E02C
:100B6000660F771F5A95E1F7C096E3E0880F991F4B
:100B7000EA95E1F7AB0148595F4FC4E0D0E0790155
:100B8000E61AF70A861B970BF701E40FF51FE491AD
:100B9000DE01AA0FBB1FAA0FBB1FA65DBE4F0D91A2
:100BA0001D912D913C9113970E2B0D931D932D9319
:100BB0003C931397FA0164910D911D912D913C91F5
:100BC0001397162B0D931D932D933C931397FC01B4
:100BD000E40FF51FE4910D911D912D913C91139718
:100BE0002E2B0D931D932D933C93139721964F5FBE
:100BF0005F4FCC30D10509F0C7CF81E0809327014A
:100C0000809190018530C8F082E0809390018091BE
:100C100000018F5F80930001209100013CE93203C5
:100C2000C00111248053984F9093890080938800CD
:100C300080916F00826080936F00FF91EF91DF9150
:100C4000CF91BF91AF919F918F917F916F915F9164
:100C50004F913F912F911F910F91FF90EF90DF9057
:100C6000CF90BF90AF909F908F907F906F905F904C
:100C70004F900F900FBE0F901F9018959111D7CEE7
:100C800069CEA82FB0E0AA0FBB1FAF58BE4F119678
:100C9000EC91119794E0E902F0011124E65DFE4F1A
:100CA00040805180628073809C917501640104C012
:100CB000CC0CDD1CEE1CFF1C9A95D2F7C428D5285D
:100CC000E628F728C082D182E282F3828F5F85CE48
:100CD000E82FF0E0EE0FFF1FEF58FE4F208121328A
:100CE00018F42181213108F091E08F5F95CE1092A8
:100CF000C50080E18093C400E0ECF0E08081826078
:100D0000808386E08093C20088E18093C1000895CB
:100D1000CF93C82F8A3019F48DE00E948806809105
:100D2000C00085FFFCCFC093C600CF91089580918D
:100D3000C00087FFFCCF8091C60008951092B900D3
:100D400088E48093B800089594EA9093BC00909151
:100D5000BC0097FFFCCF9091B900987F983011F0BC
:100D6000903199F48093BB0084E88093BC0080911B
:100D7000BC0087FFFCCF9091B900987F983119F0A3
:100D800081E0903409F480E0089581E0089524EA38
:100D900034E844E92093BC009091BC0097FFFCCF5D
:100DA0009091B900987F983011F0903199F7809325
:100DB000BB003093BC009091BC0097FFFCCF90919A
:100DC000B900987F903211F0983539F44093BC0007
:100DD0009091BC0094FDFCCFDDCF08950C94A40647
:100DE00084E98093BC008091BC0084FDFCCF089511
:100DF0008093BB0084E88093BC008091BC0087FF97
:100E0000FCCF9091B900987F81E0983209F480E09E
:100E1000089584EC8093BC008091BC0087FFFCCFD8
:100E20008091BB00089584E88093BC008091BC0051
:100E300087FFFCCF8091BB000895CF93C82F88E334
:100E40000E94C7068C2F0E94F80689E30E94EE06D6
:100E50000E94130780936C01CF910C94F00680E1FF
:100E60000E941D0780916C0186FD05C090E095955C
:100E700087958370089580E4089582E20E941D079B
:100E800090916C01892F880F880B9F778923089593
:100E900080E00E941D0780916C0183FB882780F908
:100EA0000895CF93DF93D82FC62F88E30E94C706FB
:100EB0008D2F0E94F8068C2F0E94F806DF91CF91AB
:100EC0000C94F0068AE20E941D0760916C016E7F0F
:100ED0008AE20C9451078AE20E941D0760916C011E
:100EE00061608AE20C9451078AE20E941D076091BA
:100EF0006C01677C8AE20C9451078EE00E941D070A
:100F000060E08EE00C94510760E481E10E9451079B
:100F100060E382E10C94510761E385E20E9451078E
:100F200060E781E20E94510760E386E20E94510778
:100F300060EA87E20E9451076FEF88E20C94510744
:100F40000E949E060E9462070E947D070E9474070D
:100F50000E9484070E948C070C946B0740937201D7
:100F6000609371018093900191E0891708F40895CE
:100F7000292F30E0D901AA0FBB1FAF58BE4F220F57
:100F8000331FF901ED58FE4F21812F5F11962C93ED
:100F90001197209171012C939F5FE7CFE091900111
:100FA000F0E0EE0FFF1FEF58FE4F81E0E137F8074A
:100FB00079F480919101813001F1882331F18230FF
:100FC00071F08330B1F08091910180938F01089589
:100FD000DF019E918E9191838083FD01E6CF809108
:100FE00074018F5F8093720180917301809371010E
:100FF000EACF809174018150F5CF80917401809384
:101000007201809173018F5FF1CF809174018093A1
:101010007201809173018150E9CF8093910108950D
:10102000CF93DF930E940B09CFE6D1E061E270E03D
:101030000E94AB0888830E940B0961E170E00E9466
:10104000AB088983DF91CF91089580EF8AB98FE152
:1010500084B90E9453040E94770644E064E082E071
:101060000E94AE070E94A0070E9410088FE091E046
:10107000909395018093940181E091E09093930186
:101080008093920181E291E00E941B09299A82E0FB
:1010900080936A0181E08093270180939101AA24C3
:1010A000A394B12CD12CD0E0C0E010E000E0CE0140
:1010B000880F991F880F991F9C01265D3E4F79016B
:1010C000F70180819181A281B381002E04C0B69581
:1010D000A795979587950A94D2F790916A0180FF1A
:1010E0001EC085B1950102C0220F331F9A95E2F709
:1010F00020953095822385B90E9469040F5F1F4FA8
:1011000000321105E9F6289ADBB80E946D04289890
:101110002196F0E1DF0EC031D10539F6C3CF85B19C
:10112000950101C0220F9A95EAF7822BE4CFAA1B02
:10113000BB1B51E107C0AA1FBB1FA617B70710F0C2
:10114000A61BB70B881F991F5A95A9F780959095F4
:10115000BC01CD01089597FB072E16F4009407D02B
:1011600077FD09D00E94970807FC05D03EF49095C2
:1011700081959F4F0895709561957F4F08958F9247
:101180009F92AF92BF92CF92DF92EF92FF92CF9356
:10119000DF93EC01688179818A819B8161157105FA
:1011A0008105910521F464E279ED8BE597E02DE16D
:1011B00033EF41E050E00E94790949015A019B0157
:1011C000AC01A7EAB1E40E9498096B017C01ACEE86
:1011D000B4EFA50194010E94A609DC01CB018C0D9E
:1011E0009D1DAE1DBF1DB7FF03C00197A109B048EB
:1011F00088839983AA83BB839F77DF91CF91FF90E8
:10120000EF90DF90CF90BF90AF909F908F90089518
:101210000E94BF0808958DE191E00E94BF080895E3
:10122000A0E0B0E080931D0190931E01A0931F01E8
:10123000B093200108950F931F93CF93DF93E09114
:101240009401F0919501238121FF1BC08C01D0E016
:10125000C0E0F80181918F01609194017091950136
:10126000DB011896ED91FC911997882331F00995CF
:10127000892B79F3DFEFCFEFECCF8AE00995892B4B
:1012800019F08FEF9FEF02C08D2F9C2FDF91CF9130
:101290001F910F910895A8E1B0E042E050E00C9456
:1012A00059090196272F0E9468090C946709DC01EF
:1012B000CB01FC01F999FECF06C0F2BDE1BDF89A61
:1012C000319600B40D9241505040B8F70895262F42
:1012D000F999FECF92BD81BDF89A019700B402162C
:1012E00039F01FBA20BD0FB6F894FA9AF99A0FBEDA
:1012F0000895052E97FB1EF400940E94900957FD57
:1013000007D00E94AB0907FC03D04EF40C9490095F
:1013100050954095309521953F4F4F4F5F4F089521
:1013200090958095709561957F4F8F4F9F4F089551
:101330000E94CD09A59F900DB49F900DA49F800D94
:10134000911D11240895B7FF0C9498090E949809E3
:10135000821B930B0895A1E21A2EAA1BBB1BFD0151
:101360000DC0AA1FBB1FEE1FFF1FA217B307E40784
:10137000F50720F0A21BB30BE40BF50B661F771FDC
:10138000881F991F1A9469F76095709580959095BC
:101390009B01AC01BD01CF010895A29FB001B39F95
:1013A000C001A39F700D811D1124911DB29F700D6E
:0C13B000811D1124911D0895F894FFCFB9
:1013BC000100000001000000000000970600000082
:1013CC000000020000000088060000000001000080
:0613DC00004865790000E5
:00000001FF
