:100000000C9434000C9451000C9451000C94510049
:100010000C9451000C9451000C9451000C9451001C
:100020000C9451000C9451000C9451000C947100EC
:100030000C9451000C9451000C9451000C945100FC
:100040000C9451000C9451000C9451000C945100EC
:100050000C9451000C9451000C9451000C945100DC
:100060000C9451000C94510011241FBECFEFD8E026
:10007000DEBFCDBF11E0A0E0B1E0E4EEF8E002C0E9
:1000800005900D92A432B107D9F721E0A4E2B1E0C6
:1000900001C01D92A139B207E1F70E94EC020C9455
:1000A00070040C940000E1E8F0E080818D608083B2
:1000B000109285001092840088E795E09093890063
:1000C00080938800EFE6F0E08081826080837894FE
:1000D00008952C9A2C982C9A08952B9A2B982B9A49
:1000E00008951F920F920FB60F9211244F925F92B4
:1000F0006F927F928F929F92AF92BF92CF92DF9238
:10010000EF92FF922F933F934F935F936F937F9361
:100110008F939F93AF93BF93EF93FF930E94F4014C
:10012000803411F00E94D40290E080E0FC01EE0FD8
:10013000FF1FEE0FFF1FEC5DFE4F10821182128237
:10014000138201968031910589F70E9472022091F5
:100150006A0130E0F901EE0FFF1FEE0FFF1FEC5DAB
:10016000FE4FC080D180E280F38060916901462F0C
:1001700050E081E090E0A0E0B0E004C0880F991F5B
:10018000AA1FBB1F6A95D2F78C299D29AE29BF29CA
:1001900080839183A283B38380E0812C912C5401CE
:1001A0008394909189018917A0F180916B01082EA9
:1001B000000C990B4817590779F480916C01082EAF
:1001C000000C990B2817390739F40E94D702809147
:1001D00089018F5F80938901FF91EF91BF91AF916A
:1001E0009F918F917F916F915F914F913F912F914F
:1001F000FF90EF90DF90CF90BF90AF909F908F9047
:100200007F906F905F904F900F900FBE0F901F9058
:100210001895A82FB0E0AA0FBB1FA559BE4F119685
:10022000EC91119794E0E902F0011124EC5DFE4F8E
:1002300040805180628073809C917501640104C08C
:10024000CC0CDD1CEE1CFF1C9A95D2F7C428D528D7
:10025000E628F728C082D182E282F3828F5FA1CFA5
:1002600080916401813029F4299A82E080936401AD
:1002700008952A9A81E0FACF1092C50080E1809318
:10028000C400E0ECF0E080818260808386E08093AF
:10029000C20088E18093C1000895CF93C82F8A30AF
:1002A00019F48DE00E944D018091C00085FFFCCFC4
:1002B000C093C600CF9108958091C00087FFFCCF06
:1002C0008091C60008951092B90088E48093B80028
:1002D000089594EA9093BC009091BC0097FFFCCFE6
:1002E0009091B900987F983011F0903199F48093F3
:1002F000BB0084E88093BC008091BC0087FFFCCFEA
:100300009091B900987F983119F081E0903409F408
:1003100080E0089581E0089524EA34E844E92093D8
:10032000BC009091BC0097FFFCCF9091B900987FE2
:10033000983011F0903199F78093BB003093BC0056
:100340009091BC0097FFFCCF9091B900987F9032BC
:1003500011F0983539F44093BC009091BC0094FDA5
:10036000FCCFDDCF08950C94690184E98093BC0033
:100370008091BC0084FDFCCF08958093BB0084E88D
:100380008093BC008091BC0087FFFCCF9091B900A6
:10039000987F81E0983209F480E0089584EC80939E
:1003A000BC008091BC0087FFFCCF8091BB0008950A
:1003B00084E88093BC008091BC0087FFFCCF8091D3
:1003C000BB000895CF93C82F88E30E948C018C2F27
:1003D0000E94BD0189E30E94B3010E94D80180936D
:1003E0006601CF910C94B50180E10E94E2018091F9
:1003F000660186FD05C090E0959587958370089508
:1004000080E4089580E00E94E2018091660183FB10
:10041000882780F90895CF93DF93D82FC62F88E3DC
:100420000E948C018D2F0E94BD018C2F0E94BD0166
:10043000DF91CF910C94B5018AE20E94E2016091B4
:1004400066016E7F8AE20C940B028AE20E94E2014E
:100450006091660161608AE20C940B028AE20E945C
:10046000E20160916601677C8AE20C940B028EE0E7
:100470000E94E20160E08EE00C940B0260E481E1F6
:100480000E940B0260E382E10C940B020E94630164
:100490000E941C020E9437020E942E020E943E020D
:1004A0000C94250240936C0160936B018093890149
:1004B00091E0891708F40895292F30E0D901AA0F97
:1004C000BB1FA559BE4F220F331FF901E359FE4F41
:1004D00021812F5F11962C93119720916B012C9302
:1004E0009F5FE7CFE0918901F0E0EE0FFF1FE55934
:1004F000FE4F81E0EB36F80791F480918A0181305C
:1005000019F1882349F1823089F08330C9F020E065
:1005100030E240E180918901281730F10895DF0130
:100520009E918E9191838083FD01E3CF80916E0136
:100530008F5F80936C0180916D0180936B01E7CF99
:1005400080916E018150F5CF80916E0180936C0196
:1005500080916D018F5FF1CF80916E0180936C016E
:1005600080916D018150E9CF822F90E0880F991F13
:10057000FC01E559FE4F508150320CF01082FC0115
:10058000E559FE4F518150310CF01182FC01E559C3
:10059000FE4F508157FD3083FC01E559FE4F8181AC
:1005A00087FD41832F5FB6CF80938A010895CF9353
:1005B000DF930E94CD03C9E6D1E061E270E00E94C2
:1005C000590388830E94CD0361E170E00E945903C2
:1005D0008983DF91CF91089580EF8AB98FE184B943
:1005E0000E9453000E943C0144E064E085E00E94C8
:1005F00052020E9446020E94D7028EE091E0909340
:100600008E0180938D0180E091E090938C01809326
:100610008B0180E291E00E94DD03299A82E08093C1
:100620006401AA24A394B12CD12CD0E0C0E010E046
:1006300000E0CE01880F991F880F991F9C012C5D47
:100640003E4F7901F70180819181A281B381002E13
:1006500004C0B695A795979587950A94D2F790917F
:10066000640180FF1EC085B1950102C0220F331FB7
:100670009A95E2F720953095822385B90E9469000A
:100680000F5F1F4F00321105E9F6289ADBB80E9470
:100690006D0028982196F0E1DF0EC031D10539F6C2
:1006A000C3CF85B1950101C0220F9A95EAF7822B3D
:1006B000E4CF97FB072E16F4009407D077FD09D0FE
:1006C0000E946D0307FC05D03EF4909581959F4FE5
:1006D0000895709561957F4F0895AA1BBB1B51E14A
:1006E00007C0AA1FBB1FA617B70710F0A61BB70BA2
:1006F000881F991F5A95A9F780959095BC01CD0147
:1007000008958F929F92AF92BF92CF92DF92EF9215
:10071000FF92CF93DF93EC01688179818A819B817D
:10072000611571058105910521F464E279ED8BE590
:1007300097E02DE133EF41E050E00E940D044901C4
:100740005A019B01AC01A7EAB1E40E942C046B01A1
:100750007C01ACEEB4EFA50194010E943A04DC01E7
:10076000CB018C0D9D1DAE1DBF1DB7FF03C00197B2
:10077000A109B04888839983AA83BB839F77DF91BF
:10078000CF91FF90EF90DF90CF90BF90AF909F9070
:100790008F9008950E94810308958CE191E00E945A
:1007A00081030895A0E0B0E080931C0190931D01A7
:1007B000A0931E01B0931F0108950F931F93CF9331
:1007C000DF93E0918D01F0918E01238121FF1BC009
:1007D0008C01D0E0C0E0F80181918F0160918D0122
:1007E00070918E01DB011896ED91FC911997882389
:1007F00031F00995892B79F3DFEFCFEFECCF8AE069
:100800000995892B19F08FEF9FEF02C08D2F9C2F38
:10081000DF91CF911F910F910895052E97FB1EF444
:1008200000940E94240457FD07D00E943F0407FC57
:1008300003D04EF40C9424045095409530952195A6
:100840003F4F4F4F5F4F08959095809570956195FC
:100850007F4F8F4F9F4F08950E946104A59F900D79
:10086000B49F900DA49F800D911D11240895B7FF92
:100870000C942C040E942C04821B930B0895A1E27B
:100880001A2EAA1BBB1BFD010DC0AA1FBB1FEE1F0A
:10089000FF1FA217B307E407F50720F0A21BB30B55
:1008A000E40BF50B661F771F881F991F1A9469F7D1
:1008B00060957095809590959B01AC01BD01CF012D
:1008C0000895A29FB001B39FC001A39F700D811D29
:1008D0001124911DB29F700D811D1124911D089549
:0408E000F894FFCFBA
:1008E400000000010000000000005C0100000000A6
:1008F4000002000000004D010000000001000000A3
:0409040048657900C9
:00000001FF
